:0C1A600001020408102040800302030172
:1019A100C2AF53D0E7121AD712141930070312032A
:0219B1003722DB
:071AD00075D4A075A888225F
:10141900E59630E104D21B801EE59630E2051219EB
:10142900E98017E59630E305121532800DE596300F
:10143900E00512155D8006121873E4F596021AD7B5
:10187300759D7CE4F52B121AD7121A0A121AD77F18
:0A1883006E12175E121AD00215AEA5
:1019E900121AD7121A0A1216817520827FCA0200AA
:0119F9005E8F
:10168100E4F5F2753C7D753D7D753E01FF74842F57
:10169100F8E4F674862FF8E4F60FBF02F075440102
:0116A1002226
:10155D00E59630E41175451943F3207F1A12175E95
:10156D0053F3CF121AD0E5F354CA44C2FF12005EF2
:09157D001213E753968E02195473
:1013E70030032EE4F53FE5E430E00353E4FEE5E7A0
:1013F70030E01E53E7FEE538901A6893F5E5E538C7
:10140700901A6A93FFEF6006E4F5E51F80F743E75C
:0114170001D3
:0114180022B1
:10153200121AD743C067759E6075F3811200361286
:1015420019B3EF20E504EF30E6E675F301759E600E
:0B1552007F6212175E121AD00218739D
:03000300020026D2
:03002600C2A8323B
:03000B0002000AE6
:01000A0032C3
:0300130002002EBA
:03002E00C2AA3231
:03001B000217D1F8
:1017D100C0E0C0F0C083C082C0D075D008121741EC
:0B17E100D0D0D082D083D0F0D0E03216
:0300230002004692
:03004600C2AC3217
:03002B0002004E82
:03004E00C2AD320E
:0300330002005672
:03005600C2AE3205
:030043000217ECB5
:1017EC00C0E0C0F0C083C082C0D075D018120C32DB
:0B17FC00D0D0D082D083D0F0D0E032FB
:03004B0002180791
:10180700C0E0C0F0C083C082C0D075D018120C32BF
:0B181700D0D0D082D083D0F0D0E032DF
:03005300020006A2
:0400060053A9FB32CD
:03005B0002182266
:10182200C0E0C0F0C083C082C0D075D01812177B50
:0B183200D0D0D082D083D0F0D0E032C4
:0300630002183D43
:10183D00C0E0C0F0C083C082C0D075D018120E03B6
:0B184D00D0D0D082D083D0F0D0E032A9
:03006B0002000E82
:04000E0053A9DF32E1
:0300730002185818
:10185800C0E0C0F0C083C082C0D075D018120FBFDE
:0B186800D0D0D082D083D0F0D0E0328E
:03007B000200166A
:0400160053A97F3239
:10174100E4F594759355D52E11D20B752E143003F3
:0D17510009E545D3940040021545D20C2255
:0F1A0A001218C0121AD7121AA3E4F59502158606
:1018C000E4F5A8F5A9F5DCF5DDF5B8F5B9F5DAF537
:0618D000DBF5DEF5DF226E
:10158600E4F59AF59BF59C759D7C759E60F5A4F532
:10159600A2F5A3F5A553A6F87580FF7590FF75B063
:0815A600FF75A0FF43C00722FE
:091AA3001214491215F70218D6BD
:10144900E4FF742F2FF8E4F60FBF08F6E4789BF653
:10145900FF749C2FF8E4F60FBF06F6E4FF74A22F81
:0F146900F8E4F60FBF04F6E4F522752120F52410
:011478002251
:1015F700E4F527F5267870F618F6F539F538F5513C
:10160700F537F53BF53FF540F541F542F543F54430
:03161700F5452274
:1018D6007F12785DE4F608DFFC121A997F107871A2
:0518E600E4F608DFFC40
:0118EB0022DA
:091A99007F127888E4F608DFFCF6
:011AA2002221
:071AD700E4F594759355221C
:1019B300121AD712192C8F5312192CE553B507F0AD
:0119C300FF24
:0119C4002200
:10192C00121AD785C054121ADEE554B5C0F2E5542C
:03193C005460FFF5
:01193F002285
:1015AE00C2AF121AD7439E6075F301752001301B2E
:1015BE001375F341121681D207D21BD219C2187FAE
:0515CE00C212005E22C4
:03005E008FF322FB
:10175E00C2AF75D3FC75D4F053DAF7EF600E121AE0
:0D176E00D7E5DA30E3F853DAF71F80EF22F9
:071ADE0000000000000022DF
:0D003600000000000000000000000000229B
:1018EC0012003600000000000000000000000000A4
:0618FC00000000000022C4
:1037FB0002096A000075F0A5C2AF759355E59620D6
:10380B00E16230E228E520B44123B52420E521B460
:10381B004B1BE522B44916E523B4521101D5759E15
:10382B006075C07F9037FEE493645A60EF9037FB6E
:10383B00E493B402E7E4F5F0900000758107F5D04E
:10384B000237FB903FBA78207906E5F0B4A5FDE48A
:10385B0093F608A3D9F9E4F51DF51EF51F9037FF74
:10386B0093F52722114E741420C5B330C6B01470D3
:10387B00F7F59EF8741475C0DFD8FE30C6A075C07E
:10388B00BFD8FE20C59875C0FFD8FE30C590B40ACE
:10389B0002F51DB41103751E09B40602F51F7593CD
:1038AB0055D5E0D2D8FE20C50520C60221A67581CC
:1038BB002775C09F7512057D377CFE745AB1BEC249
:1038CB00C5D1C5D2C5D1C530C5F575935575812701
:1038DB00E4F5D0759E6075C07FE596540A600A7555
:1038EB00F301114ED1CF75F3C2513075F3CA7594F4
:1038FB0003E520B441FD652470FE20AFFD759355A3
:10390B00E5DB30E03B53DBFEE5EF5418701C7153E5
:10391B00BB082043EF0453EFFEE5EF20E41571E500
:10392B00516420330E53EFFB01FC20E40E43EF04F4
:10393B0053EFFE43EC0243EF0271F153EFFB01FC3B
:10394B0030E10553DBFD211330E31F53DBF753EF5E
:10395B00FB20300471612170E510B40106E50AF516
:10396B00F2600071F153EFFB01FC30E42C53DBEF01
:10397B00E5EF20E41443EF04203104E5EE700E5321
:10398B00EFFE71F153EFFB01FCD233213E71534338
:10399B00EF0453EFFE71AD218F01FCC2C67594038A
:1039AB00758127513075120575C0FF75935520C56C
:1039BB00FA30C607C2C620C5EF21C174025122B42A
:1039CB003310511DFC511DFDBD5ADDEC70DAF11B9E
:1039DB0021B3B4551679087A08511DF709DAFA792B
:1039EB00087A08E7B1C409DAFA21B3B466FD913756
:1039FB0070FE7A08D18D759355D375C0FF30C5FD18
:103A0B0020C5FD3392C6C370F430C5FDC2C6DAE4DF
:103A1B0021B375C0FF740130C5FD20C5FDA2C633AF
:103A2B0050F5C2C622E4F596F5F2F5267818F6D8CD
:103A3B00FDF5A8F5A9F5DCF5DDF5B8F5B9F5DAF581
:103A4B00DBF5DEF5DFF595F59AF59BF59CF59D1409
:103A5B00F580F590F5A0F5B0227B00E5087012D249
:103A6B0030E509B4050474014187B4095DF52241C1
:103A7B008620E759D230E509B40A09E48BEBF5103F
:103A8B0043EC0122B40943E508B4213EE50BB40233
:103A9B000474024187B403329100B4050CBE062AAC
:103AAB00BF002774047E044187B4060CBE021BBF03
:103ABB00081874067E004187B4410FB5250C913769
:103ACB0060021161B11974084187D23322D23120BF
:103ADB00E534E509B406F3E50B30E502941B60EA27
:103AEB00B4080050E523F8903FAA93FC7D3FE8040F
:103AFB0093FE7F00E50F7009C3EE950E4003E50EB4
:103B0B00FE7512416192B4A1C1D509BEE50BB40398
:103B1B00B99100B40519BE06B1BF00AE7A04E51326
:103B2B00B452A77B028512EA75EA721E1E6185B438
:103B3B00060ABE0295BF08927A066129B4418BB57D
:103B4B0025889137708461927808E5EEF9FB600562
:103B5B00A6ED08D9FB22E5106010EF7008EE600BA4
:0D3B6B00B40802D234E510B405092210346C
:103B780001227B004186B4070E7A087B0071FB7135
:103B88009E912E74074187B409E37198740941879F
:103B9800B1187A087B00EE4F600AEA6007D18DF50C
:103BA800EA0BDAF222E510B40220E509F4551130E7
:103BB800E21453F3F7759E6075C07F11615130753B
:103BC800F301D1C5013885091122B40406910D7B92
:103BD800004186B4060281D7B408EEA101E453DBA4
:103BE80067F5E953ECFD53EFFDE4F510F512F52602
:103BF800D23722AC14AD1522AC0CAD0DAE0EAF0F02
:103C0800E50AF51222E508B405FAE509B477028158
:103C18001BF513B4521E91376008E50BB4FC0C7504
:103C28000A00AC0AAD0B8C148D1522E4F51322E5BD
:103C38002764A522B45706913770F0812AB4560933
:103C4800912AEC4D70E5F51822B47727E513B4579F
:103C5800B371FB7A04790AEE4F600BE513B4570889
:103C6800E7B1C409DAF1812ED18D67600474EE42A0
:103C78001880F0B44116E50AB44B11E50BB4490CB1
:103C8800E50CB45207E50DB44102F52554DFB445FF
:103C98003DE50AB4450D630B4F630C4C630D43912E
:103CA800CCE11BB45A087CFE7D37E50BA1BEB4A558
:103CB80007B5271A7CFF81B0B4FF069137700FA1B2
:103CC8002CB4050A850B1D850C1E850D1F2222E5C7
:103CD8001354FEB4561F103708EB7908FA71FB81AC
:103CE8005FE5096420B5130DE508B40608790AEB09
:103CF800C3940250E775130022EB6014B408004027
:103D0800027408FA7908EE4F6006E7B1C409DAF6DA
:103D180022913770FBEDB45AF7ECB4FE047455A148
:103D28003CB4FF0474AAA13C543CF5F775BE007579
:103D3800BF0074E6F5B3759355751C05E512B40517
:103D480055851CB4751C0A851DB5851EB6E5B3B42A
:103D5800E61AE5F724C8502B8030E5BEB4030050BE
:103D680022048380023800B5BF20A18BB46E14E50D
:103D7800F760E724C8500C24F9500F700DE5BE24F5
:103D8800415007851FB700000000E4F5B3F5B4F50E
:103D9800B5F5B6F5B722B40602A149B441F7A14971
:103DA800EE70011F1E227D007C017438B1BE7400C4
:103DB800B1BE7C007402F5BF8DF7C110F5BFE512E6
:103DC800B44102C108BDFC0A75F73FEC44C0F5BE1A
:103DD800C112ED700FECB40300502575F73724FBC2
:103DE800F5BEC112B4FF09303016EC20E712C11934
:103DF800B43800501CB43708BCFA004003BCFA11B0
:103E0800EDB440005026F5F78CBE746EB13C75F7E2
:103E180000B1A8C1B7B4FE07ECF8E5BFF6C119B404
:103E2800FD08ECF875F700E5BFF2C119B4FFE6EC40
:103E380033745A4001C48CBEC114E583700CE5820A
:103E4800B40300504B9037FBC18AB4FF0A303140AD
:103E5800E58220E73BC186B4FC1575833FEC30E76B
:103E68000644C0F582C1895403FC2418F8C1ADB4D6
:103E78003800500AB43719E582B4FA004012903776
:103E8800FAE493C1B7B1A88C828D83E512B441AA34
:103E9800E583B440005004E493C1B7B4FF02C1B64F
:103EA800B4FE05A882E6C1B7B4FD04758300E00C32
:103EB800BC00090DBDFD011DBD00011D22D1C7D8E3
:103EC800FE759355D9F9227806E4F6D8FD7F40753A
:103ED8001205D18D29F950050ABA00010B759355C1
:0D3EE800BD40EF891B8A1A8B19E94A4B6017
:103EF50006BB3F06BAC0037527A522C2AF53F3F729
:103F0500759355758127B45AFDE4F5D0F5F3759E83
:103F15006075C07F01EA74381454FCFAB130EA7058
:103F2500F7B1AEB1AEC1CF12011001000000080318
:103F35000620100103000000010403090409022200
:103F450000010100A032090400000103010100097C
:103F550021100100012248000705810308000A0518
:103F6500010906A1018507050895087501190129AB
:103F7500089102C00600FF0901A10185051500256C
:103F8500FF1901290575089505B102C00600FF094D
:103F950001A1018506150025FF1A01002A010875F2
:103FA50008960108B102C02C1242223E044B095D5D
:103FB5000754096448414B49524100000000000084
:103FC50000000000000000000000000000000000EC
:103FD50000000000000000000000000000000000DC
:103FE50000000000000000000000000000000000CC
:0B3FF5000000000000000000000000C1
:03000000023800C3
:10096A00000000E59620E10B20E20E20E30B20E0D8
:0F097A0008800078FFE4F6D8FD7581A50209C456
:10194000439D18121ADE539DF7C2B31218EC539D33
:04195000EFC2B4220C
:1019C500539DF7C2B3121ADE439D101218EC439DC6
:0219D5000822E6
:100F1400E4F55BFEEF30E705439D088005539DF73C
:100F2400C2B3439D10EF25E0FF0000000000005312
:100F34009DEFC2B40EBE08DC0000000000000000FB
:100F440000000000439D08000000000000439D10C5
:100F5400121ADEA2B3E433FD539DEFC2B4BD010304
:050F64007FFB227FFA73
:010F69002265
:1011D200E4F559439D08FE439D10E55925E0F55974
:1011E200A2B3E4334259000000000000539DEFC255
:1011F200B40EBE08E2EF6005439D088005539DF7DB
:10120200C2B3121ADE439D10121ADE539DEFC2B40E
:02121200AF59D2
:0112140022B7
:041256008F588D59C7
:10125A00755AFB1219407F66121289601C1218EC2B
:10126A00AF5812128960121218EC7D01AF59120F91
:0E127A0014EF64FB6003755AFA1219C5AF5ADF
:0A128800227D01120F14EF64FB2217
:021215008F57F1
:10121700E4F5581219407F6612124D60231218EC3C
:10122700AF5712124D60191218EC1219407D017F49
:1012370067120F14EF64FB60077F011211D28F58FA
:051247001219C5AF58AB
:0A124C00227D01120F14EF64FB2253
:10007E001803530049004E004F0020005700450062
:10008E0041004C00540048000004030904200348BA
:10009E0000410049004C00550043004B0020004336
:1000AE00004F002E002C004C0054004400001A0398
:1000BE0055005300420020004B00450059004200FD
:1000CE004F00410052004400004744502D4F464E11
:1000DE002D55532D48312D31352D30300012011054
:1000EE0001000000088A250C000001010200010534
:1000FE00010906A101050719E029E715002501757B
:10010E000195088102950175088101950375010518
:10011E00081901290391029505750191019506753E
:10012E0008150026FF00050719002AFF008100C0F0
:10013E0005010902A10185010901A10005091901A5
:10014E002903150025017501950381027505950199
:10015E00810105010930093109381581257F75089E
:10016E0095038106C0C00601000980A10185022504
:10017E0001150075010A81000A82000A83009503A9
:10018E00810695058101C0060C000901A1018503B8
:10019E002501150075010AB5000AB6000A6F000A9E
:1001AE0070000AE2000AA2000AE9000AEA009508B5
:1001BE0081020A83010A94010A86010A88010A8AC9
:1001CE00010A92010AB7000ACD00950881020A21A0
:1001DE00020A23020A24020A25020A26020A27021A
:1001EE000A2A020AB10295088102C00501090CA172
:1001FE000185091500250109C69501750181067550
:10020E00078103C00600FF0901A10185061500251F
:10021E00FF1A01002A0F047508960F04B102C006DA
:10022E0000FF0901A1018505150025FF190129050A
:10023E0075089505B102C009023B00020100A0320B
:10024E00090400000103010100092110010001222F
:10025E0041000705810308000A090401000103009B
:10026E000000092110010001220701070582030881
:10027E00000AFF0A09FF0E62FF1A6CFF10FBFF1A3D
:10028E006CFF1722FF05C8FF1A6CFF18A7FF163D5B
:10029E00FF1505FF1345FF1A6CFF1A6CFF0D2EFF9D
:1002AE0010AEFF14A9FF1A6CFF1A6CFF1A6CFF1A1E
:1002BE006CFF1A6CFF0A9BFF0EBCFF1479FF1AEB42
:1002CE00FF1AF1FF1AACFF0BACFF1A19FF1A28FF29
:1002DE001AEBFF1AEBFF1A78FF1A83FF1AF7FF1AB1
:1002EE00FDFF1AEBFF16A2FF137BFF19FAFF1B038C
:1002FE00FF1B09FF1AB5FF1968FF1B0FFF0066FFF2
:10030E001ABEFF1B15FF006EFF1AC7FF1B1BFF1344
:10031E00B1FF1B21FF1AEBFF1A37FF1AEBFF1AEB87
:09032E00FF1AEBFF161AFF00761E
:1008C80053DBEFD213AF48EF75F003A424EFF582A2
:1008D800E43402F583740193FA740293F92275499A
:1008E8000275EB0143B91075E90643EC012275491D
:1008F80001E4F5EB43B90875E90143EC0122852AC7
:1009080082852983E493754B00F54C7547072214BB
:10091800F5828C83E493F5EA0F22C3E54E9408E54B
:100928004D940022754A0874F8254EF54E74FF352B
:100938004DF54D22F583740193FA740293F9021B65
:100948002DE493424F75480F754901E42243EF04A3
:1009580053EFFE22E5364535453422052AE52AAC13
:02096800292242
:0D1A4600E549C394064003E4F549AF492289
:1016E4008F4AE4FDFCEFFBC3ED9B7480F86C9850CB
:0E16F4000D742F2DF8A6ED0DBD00010C80E742
:0117020022C4
:10190200200302D322E52F64A16008E52F64A260C0
:0519120002D322C322F4
:10191700200302D322E52F64216008E52F642260AB
:0519270002D322C322DF
:061AE500E4F549F5B92209
:1017030043C067C2C1E4F53AF54585F328C2AF5338
:0F171300968E121AD7438702758E55000000225A
:100FBF00E4F552E5DF30E103E4F5DFE5DF30E23D54
:100FCF0053DFFB121AD7053AAF3AEFC39543402AC6
:100FDF0030031BE53F7002F53FE4F59543F31075C1
:100FEF00A08575804875903275B07D121703E4F5B2
:100FFF009543F310121954121703D2AB22E4F5DF05
:01100F0022BE
:100C3200C2AFE5EF54186007E5EF20E46E8066E589
:100C4200EE64087060AFEE1216E4120955E5EF206B
:100C5200E459E4F5B953DB67F549F5485322F0F559
:100C620047F5E9F53AE52F546024E0601B24207033
:100C720037E530C3940D5033AF30EF75F003A42441
:100C820080F582E434028015E530C3940C501CAF29
:100C920030EF75F003A424A7F582E434021208DBD6
:100CA200121B2D8006120955121A6C53EFFBD2AF9C
:010CB200221F
:100A0900E53564026003020A97E5366003020A9736
:100A1900E52F247F601414602A2402706F201D05BD
:100A2900E4F5EA804675EA028041E5346002805EB9
:100A3900E5331460050470098021300302801C80AD
:100A49004D804BE53460028045E5332480600C1409
:100A5900600E14601B248270318000E4F5EA801C6A
:100A690030030BE5E45402C313F5EAE4800E801E5B
:100A7900300315E5E75402C313F5EAE4F5EA7549CD
:100A89000275EB021208EC22800480028000121A1F
:020A99006C22CD
:100E6200E5327052E52F24FE601024027046E5310F
:100E7200B401057548038032803CE5344531703257
:100E8200E5332480600F14601114601824827020EE
:100E920075480480157548058010300305754806AD
:100EA2008008801230030775480A1208F62280066D
:0A0EB200800480028000121A6C22F6
:1010FB00E53645354532703FE52F700CE531B401CF
:10110B00057548078029802FE52F64027027E53489
:10111B0045317021E533547F601B300318E533B440
:10112B0081057548088008E533B4820775480B12B2
:0B113B0008F62280028000121A6C22CD
:10172200E53545364532452F7011E531C394805079
:0F1732000A8531467548011208F622121A6C22F8
:1005C800E52F64806009E52F648160030206D8E5A1
:1005D80032546024E070030206642420600302069B
:1005E800D6E52FB481030206D8E53224FE6019143B
:1005F800602824027064754B00754C1275290075CB
:100608002AEB7547010206CF754B00754C3B7529DF
:1006180002752A457547020206CFE53114601614A3
:10062800601F2403602714702F752900752A9712FC
:1006380009060206CF752900752A9B1209060206CB
:10064800CF752900752ABC1209060206CF75290044
:10065800752A7E120906806F80768074E5347005ED
:10066800E52FB480028069E533702DE53224DE6021
:1006780014047022754B00754C09752902752A57A8
:100688007547038042754B00754C41752900752AE2
:10069800FD75470480318038E5336401702EE532FA
:1006A80024DE6014047023754B00754C097529020B
:1006B800752A70754705800F754B01754C077529AC
:1006C80001752A3E754706020CB38004800280003B
:0406D800121A6C2264
:1018A700E535B40110E536700CE52FB48007853BAC
:0918B700EA1208E622121A6C2262
:10163D00E53645354532452F7014E5F26010E5313C
:10164D006005E531B401077548021208F622121A39
:02165D006C22FD
:10150500300326E53645347020E5356401701AE56B
:101515002F64817014E53370028006E533B401074A
:0D152500E4F5EA1208E6228000121A6C229A
:1013450030032F12095C453245317026E52F6401C3
:101355007020E5337008754809754901800CE5333F
:10136500B4010D75480C754901E4F5EB1208EC2242
:061375008000121A6C2238
:100D2E00121902406BE534701DE5337019E5317010
:100D3E0015E532B4020EE52B5407F5EA7549027536
:100D4E00EB018020804AE5316405701CE532B40366
:100D5E001775EA057881E6F5EA789AE6F5EA7549B7
:100D6E000275EB031208EC22E531B40621E532B42C
:100D7E00031CE535B41017E536B404127529007559
:100D8E002AD7754B00754C13754708020CB38000BB
:040D9E00121A6C2297
:1010AE001219024044E5364534703CE53564017052
:1010BE0036E5337009E5317030853CEA8021E53341
:1010CE0064017021901A6893B531077884E6F5EAC9
:1010DE00800D901A69E493B531097885E6F5EA1228
:0D10EE0008E622800480028000121A6C22A5
:1014A9001219024025E5364534701DE53564017091
:1014B90017E5337005853EEA8008E533B4010785F1
:0E14C90044EA1208E62280028000121A6C2209
:100A9B001219175003020B20E534707CE5367034C5
:100AAB00E5359408502EE53354FE7026E531453379
:100ABB00700AE532B402057548128037E531B4058A
:100ACB000FE532B4030AE535B406057548168023E5
:100ADB0080438041E53664047020E5356410701A5C
:100AEB00E53364017014E531B4060DE532B4030847
:100AFB007548177549048015801BE5337015E53172
:100B0B00700FE532B4020A7548127549051208F9DF
:090B1B002280028000121A6C22F3
:100EBC00121917404F12095C7048E5337009E5317F
:100ECC00704275480D8010E53364017033E5317064
:100EDC000B434F0375480F754901801E901A68E447
:100EEC0093B53108901A60120949800E901A69E482
:100EFC0093B5310A901A611209491208FA2280043A
:080F0C0080028000121A6C2221
:10147900121917402712095C4532701EE5337008AE
:1014890075480E754901800CE533B4010B75481098
:10149900754901E41208FA2280028000121A6C22AE
:061AEB0053EFFBD2AF2215
:061AF1001208CD021B2DBE
:091AAC0043EC0253EFFBD2AF2220
:100BAC00E54E454D6070120922400512092C800853
:100BBC00854E4AE4F54DF54EE54A604FE547604BEE
:100BCC00E54764087031E54E454D702BFFE54A242E
:100BDC00FEFEEFC39E500C12096370020529120928
:100BEC001780EA785CE6FEC4540F2430F5EAEE5424
:100BFC000F2430F5EA8014E4FFEFC3954A500C1231
:100C0C0009637002052912091780EE854AEB120858
:100C1C00EC2012118008301109C211E4F5EB43EC01
:050C2C00012243EC026F
:010C310022A0
:0F1A1900E5DB30E4061208C8021B2D121AE52285
:0F1A2800E5DB30E4061208C8021B2D121AE52276
:0B1A780053DBEFD213E4F547021AE540
:0B1A830053DBEFD213E4F547021AE535
:061AF7001208CD021B2DB8
:061AFD001208CD021B2DB2
:1016A2008546F2E4F53B53E4F753E7F7E5F26008C9
:1016B2005320F043208480065320F0432082021AF4
:0116C200E542
:10137B0085313BE53B601453E4FD43E40C53E7FD3F
:10138B0043E70C5320F0432088801853E4F753E7CE
:10139B00F7E5F260085320F043208480065320F0D9
:0613AB00432082021AE556
:1019FA00E4F5A4F5A6F5A5F5A3F5A2C21D021AE51C
:061B030053EFFD021AE59C
:061B090053ECFD021AE599
:091AB50053E4FD43E40C021AE5C0
:091ABE0053E7FD43E70C021AE5B1
:1019680075A48575A24875A332E4F5A5F5A6D21D20
:03197800021AE56B
:061B0F0043E40E021AE59A
:061B150043E70E021AE591
:03006600021AE596
:03006E00021AE58E
:091AC70085323C85323D021AE52E
:1013B100E54F5403FFBF0314E4FF74842FF8A632F2
:1013C10074862FF8A6320FBF02F08017E54F30E088
:1013D1000A7884A6327886A63280087885A6327883
:0613E10087A632021AE5A6
:061B1B0085313E021AE5CF
:061B2100853144021AE5C3
:0F1A3700E549B40409E52F5407F52B121AE522EF
:10161A00E52FB4051BE530B47516E534453345327C
:10162A004531700CC2AF745A75F0A512001ED2AFC4
:03163A00021AE5AC
:03007600021AE586
:10177B00C2AF43EF04121A46EF75F003A424CBF566
:0D178B0082E4340212093C53EFFBD2AF227E
:100E0300C2AFE5EF30E402802943EF04E5EE60274B
:100E1300E5EEC39409400E12095543EC0243EF0279
:100E2300121AE5801DAFEE1216E453EFFEE5EF3024
:100E3300E41553DBF7800B53EFFEE5EF30E4085383
:100E4300DBF753EFFB8012121A46EF75F003A4246D
:0F0E5300DDF582E4340212093C53EFFBD2AF22EB
:100CB300AF36EFFEAD357C00E42DFFEC3EFE75490B
:100CC30002F54D8F4EE547600FC3E54C9FE54B9E04
:100CD3005006854B4D854C4E120922400DE5496463
:100CE300026005E549B404020549E54E5407700462
:100CF300D2118002C211120922400512092C800868
:100D0300854E4AE4F54DF54EE54A6018E547601413
:100D1300E4FFEFC3954A500C1209637002052912D0
:0A0D2300091780EE854AEB1208EC78
:010D2D0022A3
:0C1A6C0043EC0243EF02E4F549F5B92217
:04001E00023F00227B
:10165F00011200C12BC128C129C12DC12EC12A02DF
:05166F00100000C12C79
:1014D700F6C2AF75E501F5E5E554F404F5E5E55326
:1014E700F404F5E5E4F5E575E605D2AF43E701F564
:0E14F7003AF545227817E654FDF64480F622B9
:100DA2007557647D827F06121256121ADEAF5715EE
:100DB20057EF70F67D5A7F091212567D017F7F121E
:100DC20012567D487F2E1212567DF87F3812125627
:100DD200E4FD7F7F1212567D0A7F0D1212567D1B93
:100DE2007F1D1212567D187F4D1212567D927F4C36
:100DF2001212567D127F4F121256E4FD7F09021223
:010E02005699
:1003370012197BC2B1121AD7121A53200305E4F51A
:100347002180F212106012114620B60D202D18D20E
:100357002D7817E64481F6800E302D0BC22D7817C5
:10036700E654FEF64480F620B50D202E12D22E78E4
:1003770017E64482F68008302E05C22E1214FBD2EF
:10038700B0121ADE20B026D22C0511E51170020535
:1003970010C394B8E510940B404DE4F510F5112007
:1003A7002A45D22A7817E64482F60203EE302A0756
:1003B700C22A1214FB8030302C2DE4F510F511C23F
:1003C7002C7817E644011214D7E5E730E3FBE5E79D
:1003D700540370F57817E654FE1214D7E5E730E3B7
:1003E700FBE5E7540370F5202B09D22BC2AF120DA2
:1003F700A2D2AF300B790512E512D394014065E420
:10040700F512C2AF7F021212158F557F34121215E3
:100417008F56D2AFE55530E72EC2AF7F03121215C4
:100427008F537F041212158F54D2AF202436C2AFD8
:1004370075E5017817E6F5E5E554F404F5E5E553C8
:10044700F404F5E5E4801A7817E6FF30E716547FE1
:10045700F6202410C2AF75E501E6F5E5E4F5E5F50C
:10046700E51214ECC20B121A8E12179802033C30D5
:0D0477000C05C20C1210101217B502033C48
:10197B00752E1475D3CE53DAF753DAFD75D4A075E3
:03198B00A8882207
:0D1A530043DD0643A95B43A88053D0E72282
:0B1A8E00E53C6006D53D03853C3D2291
:1017B500E551B5370BE4F537F55130090EC209226D
:0C17C5000537E537540FF5371206DC221B
:10179800539EF8E52B30E006C2C0D21A8004D2C0AE
:0D17A800C21AE52B30E103C2C122D2C122DA
:10048400070001380133070100000113012F013473
:100494000000000001160702011B011A07110000E9
:1004A400000000000131000001280000012A0000C2
:1004B4000000000000000000000000000000000038
:1004C4000710000001040703011D0114013501296F
:1004D4000704010501090705011901150117010A9E
:1004E40000000706000000000000000000000000FB
:1004F40000000000010F070701370112000000008F
:1005040000000708000000000000000000000709C8
:10051400070A0111010D070B01100118011C010B41
:1005240004000000000000000000000002020000BF
:10053400000000000107070C01060108000000008C
:10054400070D0000010E070E0136010C01300000FA
:10055400000000000000013500000000000002045B
:100564000201000000000000000000000000000084
:10057400000000000000000000000000020800006D
:10058400014C070F00000000000000000000012CD7
:100594000000000000000000000000000000000057
:1005A4002D4427431F3B1E3A223E213D4F4D2642F8
:1005B400504A524B233F2440203C2E452541514E66
:0405C4002B49394640
:0616740001140001130047
:10198E00A20AE433FFAD5722F583E493FDA20AE4E5
:03199E0033FF22F2
:1006DC0074712537F8E6FFC3949040030207DC756C
:1006EC00F002EFA42484F582E5F03404F583E4935E
:1006FC00F55875F002EFA42485F582E5F03404F585
:10070C0083E493F557E55870030207DC1216C3E532
:10071C0058B40409300A04D2268002C226300A4595
:10072C00E558B402028043E558B401028047E5580D
:10073C00B40302804AE558B40502804EE5586407BC
:10074C007019E55725E030260924A5F582E4340517
:10075C00806024A4F582E434058057E558640F705A
:10076C006FA20A805AE558B4020612198E0219D7E4
:10077C00E558B4010512198E8053E558B4030612DE
:10078C00198E021292E558B4050612198E02188DB4
:10079C00E55864077021E55725E024A5F582E4347B
:1007AC0005121996120F6AE55725E024A4F582E488
:1007BC0034051219968016E558B40F14A20AE433C6
:1007CC00FF7D021219D7A20AE433FF7D2C120F6AA7
:0107DC0022FA
:100F6A00EF601FE4FE749C2EF8E67009749C2EF85C
:100F7A00A605D22222749C2EF8E66D60370EBE06B4
:100F8A00E422E4FE749C2EF8E66D7024EEC3940508
:100F9A005017AF06EFC39405500F749D2FF8E6FC67
:100FAA00749C2FF8A6040F80EBE478A1F6D22222D3
:040FBA000EBE06D091
:010FBE002210
:10129200ED2450131313541FFE53061F0EED540773
:1012A200901A6093FBFCEF601074A22EF8E65C705B
:1012B2001A74A22EF8E64C800F74A22EF8E65C6037
:0B12C2000A74A22EF8EBF456F6D221BD
:0112CD0022FE
:1019D700D222EF6006789BE64DF622EDF4789B560F
:0219E700F622E6
:10188D00EF600A78A2E65D7010E64D800978A2E659
:0A189D005D6006EDF456F6D220223D
:10106000E5E430E348E5E45403704230223FC22215
:10107000E59630E4045396EF22C2AF789BE6F5E2A2
:10108000E4F5E230080AFF75E2010FBF06F9800DB2
:10109000E4FF749C2FF8E6F5E20FBF06F5D2AF75BA
:0D10A000E30843E401853C3DE4F53AF545E5
:0110AD002220
:10114600E5E730E342E5E75403703CE545703830A7
:101156002011C220C2AF75E50278A2E6F5E575E674
:1011660002801A302121C221C2AF75E50378A3E6B9
:10117600F5E508E6F5E508E6F5E575E604D2AF43DC
:08118600E701E4F53AF545220A
:1015D300FBBFFDFEEF7FF7FB7FDFF7BFEFFEDFFD16
:1015E300FE7F00020003020101010000020100016D
:0415F30002020003ED
:06167A000116000115003D
:1012CE00FFE590131354044FFFE59025E025E054FD
:1012DE00084FFFE590C31354104FFFE5A0C43354DD
:1012EE00204FFFE58054404FFFE5A0C43322E52692
:0C12FE009015D393225407901A6093229D
:1010100020094C120B24300F028041E52770177411
:101020005D2526F8A6390526E526C394125001222F
:101030000527E4F52622745D2526F8E66539600269
:10104000801A0526E526C3941250012212118E92B1
:1010500008300802800620090312130A121B2722F7
:10195400E4F59CF59BF59A439D187580FF7590FFFF
:0419640075A0FF2249
:100B2400121954E526C394125079E5269015E593DD
:100B3400FFC394045069EF70071212FCF580801A09
:100B4400E5269015E593FFB401071212FCF5908099
:100B540009EFB402051212FCF5A0121ADEE5A0C4D6
:100B640013135402FFE58013131354014F1212CED2
:100B740054804FF539121ADEE5801313135401B56E
:100B840039047F0180027F00E5A0C4131354024F8F
:100B94001212CE54804F60C26339FFC20F8006D256
:080BA4000F8002D20F02195468
:10118E00E4FFFE745D2EF8E6FD5FFCED4207EC60B9
:10119E002DC3135455FDEC54552DFC13135433FD30
:1011AE00EC54332DFCC4540FFDEC540F2DD394018D
:1011BE00400CEE640A6007EE640E6002D3220EBE8F
:0311CE0012C1C388
:0111D10022FB
:061B2700E4F527F526227B
:10130A00E4F557F55774882557F8E6FF745D2557B5
:10131A00F8E6FEB507028019EE6FFFAD571207DD3A
:10132A00500122745D2557F8E6FF74882557F8A600
:0A133A00070557E557C3941240CB96
:011344002286
:0407DD008F588D594B
:1007E100E4F55B745D2559F8E6F55AE4FF435B8057
:1007F100E55B25E004F55BC20AE55A30E702D20A5F
:10080100E55A25E0F55AE55820E70EBF0702C32255
:10081100E55825E0F5580208BCE55825E0F558E50E
:1008210059C394124002D3220551E551540FF55199
:10083100E55933333354F84FFE74712551F8A60648
:10084100E551121303FE200A15E55130E308EEF4D9
:10085100787056F68016EEF4786F56F6800EE551F4
:1008610030E30478708002786FE64EF6E551653723
:100871006007EF64077044C322EFC394075017E584
:100881005B25E0F55B30D7047E0180027E00EE251A
:100891005BF55B0F80E3745D2559F8E55B56F674F3
:1008A1005D2559F974882559F8E55BF45647F71524
:1008B10051E551540FF551D209C3220FEFC39408EA
:0608C10050030207EED314
:0108C700220E
:1016C300E53730E309121303787056FF8009E537D5
:1016D300121303786F56FFEF7003C38001D3920A8E
:0116E30022E4
:100989000219A1E493A3F8E493A34003F68001F2CA
:1009990008DFF48029E493A3F85407240CC8C3336F
:1009A900C4540F4420C8834004F456800146F6DF3E
:1009B900E4800B010204081020408090165FE47E59
:1009C900019360BCA3FF543F30E509541FFEE49333
:1009D900A360010ECF54C025E060A840B8E493A3FA
:1009E900FAE493A3F8E493A3C8C582C8CAC583CA25
:1009F900F0A3C8C582C8CAC583CADFE9DEE780BEDD
:011680000069
:061B2D008A838982E47343
:00000001FF
