:0C230800010204081020408003020301C1
:10226900C2AF53D0E712237F121CDE3007031218C6
:022279004A22F7
:0723780075D4A075A88822AE
:101CDE00E59630E104D21B801EE59630E205122215
:101CEE00B18017E59630E305121E54800DE596304F
:101CFE00E005121FD98006122144E4F59602237FD7
:10214400759D0BE4F52B12237F1222C212237F7F8D
:0A2154006E122014122378021ECE32
:1022B10012237F1222C2121F387520827FCA0200A8
:0122C1005EBE
:101F3800E4F5F2753C7D753D7D753E01FF74812F9A
:101F4800F8E4F674832FF8E4F60FBF02F075440145
:011F58002266
:101FD900E59630E406754519122378E5F354CA44A9
:0E1FE900C2FF12005E121C7A53968E0221AACD
:101C7A0030032EE4F53FE5E430E00353E4FEE5E704
:101C8A0030E01E53E7FEE53890231093F5E5E5387A
:101C9A0090231293FFEF6006E4F5E51F80F743E710
:011CAA000138
:011CAB002216
:101E540012237F43C067759E6075F38112003612AA
:101E6400227BEF20E504EF30E6E675F301759E6012
:0B1E74007F6212201412237802214428
:03000300020026D2
:03002600C2A8323B
:03000B0002000AE6
:01000A0032C3
:0300130002002EBA
:03002E00C2AA3231
:03001B0002208739
:10208700C0E0C0F0C083C082C0D075D008121FF76F
:0B209700D0D0D082D083D0F0D0E03257
:0300230002004692
:03004600C2AC3217
:03002B0002004E82
:03004E00C2AD320E
:0300330002005672
:03005600C2AE3205
:030043000220A2F6
:1020A200C0E0C0F0C083C082C0D075D01812137FC8
:0B20B200D0D0D082D083D0F0D0E0323C
:03004B000220BDD3
:1020BD00C0E0C0F0C083C082C0D075D01812137FAD
:0B20CD00D0D0D082D083D0F0D0E03221
:03005300020006A2
:0400060053A9FB32CD
:03005B000220D8A8
:1020D800C0E0C0F0C083C082C0D075D01812204EB6
:0B20E800D0D0D082D083D0F0D0E03206
:030063000220F385
:1020F300C0E0C0F0C083C082C0D075D01812168F64
:0B210300D0D0D082D083D0F0D0E032EA
:03006B0002000E82
:04000E0053A9DF32E1
:0300730002210E59
:10210E00C0E0C0F0C083C082C0D075D0181212FEDD
:0B211E00D0D0D082D083D0F0D0E032CF
:03007B000200166A
:0400160053A97F3239
:101FF700E4F594759355D52E11D20B752E14300335
:0D20070009E545D3940040021545D20C2296
:0F22C2001221C212237F12234BE4F595021EA7AF
:1021C200E4F5A8F5A9F5DCF5DDF5B8F5B9F5DAF52C
:0621D200DBF5DEF5DF2263
:101EA700E4F59AF59BF59C759D0B759E60F5A4F579
:101EB700A2F5A3F5A5F5A67580FF7590FF75B0FF90
:071EC70075A0FF43C00722D4
:09234B00121D0E121EF30221D82E
:101D0E00E4FF742F2FF8E4F60FBF08F6E47897F689
:101D1E00FF74982FF8E4F60FBF06F6E4FF749E2FBB
:0F1D2E00F8E4F60FBF04F6E4F522752120F52442
:011D3D002283
:101EF300E4F527F526786FF618F6F539F538F55138
:101F0300F537F53BF53FF540F541F542F543F5442B
:031F1300F545226F
:1021D8007F12785CE4F608DFFC1223417F107870E8
:0521E800E4F608DFFC35
:0121ED0022CF
:092341007F127885E4F608DFFC48
:01234A002270
:07237F00E4F594759355226B
:10227B0012237F12222E8F5312222EE553B507F015
:01228B00FF53
:01228C00222F
:10222E0012237F85C054122386E554B5C0F2E554BF
:03223E005460FFEA
:01224100227A
:101ECE00C2AF12237F439E6075F301752001301B54
:101EDE001375F341121F38D207D21BD219C2187FC5
:051EEE00C212005E229B
:03005E008FF322FB
:10201400C2AF75D3FC75D4F053DAF7EF600E122318
:0D2024007FE5DA30E3F853DAF71F80EF2292
:07238600000000000000222E
:0D003600000000000000000000000000229B
:1021EE001200360000000000000000000000000099
:0621FE00000000000022B9
:1037FB000210BA000075F0A5C2AF759355E596207F
:10380B00E16230E228E520B44123B52420E521B460
:10381B004B1BE522B44916E523B4521101D5759E15
:10382B006075C07F9037FEE493645A60EF9037FB6E
:10383B00E493B402E7E4F5F0900000758107F5D04E
:10384B000237FB903FBA78207906E5F0B4A5FDE48A
:10385B0093F608A3D9F9E4F51DF51EF51F9037FF74
:10386B0093F52722114E741420C5B330C6B01470D3
:10387B00F7F59EF8741475C0DFD8FE30C6A075C07E
:10388B00BFD8FE20C59875C0FFD8FE30C590B40ACE
:10389B0002F51DB41103751E09B40602F51F7593CD
:1038AB0055D5E0D2D8FE20C50520C60221A67581CC
:1038BB002775C09F7512057D377CFE745AB1BEC249
:1038CB00C5D1C5D2C5D1C530C5F575935575812701
:1038DB00E4F5D0759E6075C07FE596540A600A7555
:1038EB00F301114ED1CF75F3C2513075F3CA7594F4
:1038FB0003E520B441FD652470FE20AFFD759355A3
:10390B00E5DB30E03B53DBFEE5EF5418701C7153E5
:10391B00BB082043EF0453EFFEE5EF20E41571E500
:10392B00516420330E53EFFB01FC20E40E43EF04F4
:10393B0053EFFE43EC0243EF0271F153EFFB01FC3B
:10394B0030E10553DBFD211330E31F53DBF753EF5E
:10395B00FB20300471612170E510B40106E50AF516
:10396B00F2600071F153EFFB01FC30E42C53DBEF01
:10397B00E5EF20E41443EF04203104E5EE700E5321
:10398B00EFFE71F153EFFB01FCD233213E71534338
:10399B00EF0453EFFE71AD218F01FCC2C67594038A
:1039AB00758127513075120575C0FF75935520C56C
:1039BB00FA30C607C2C620C5EF21C174025122B42A
:1039CB003310511DFC511DFDBD5ADDEC70DAF11B9E
:1039DB0021B3B4551679087A08511DF709DAFA792B
:1039EB00087A08E7B1C409DAFA21B3B466FD913756
:1039FB0070FE7A08D18D759355D375C0FF30C5FD18
:103A0B0020C5FD3392C6C370F430C5FDC2C6DAE4DF
:103A1B0021B375C0FF740130C5FD20C5FDA2C633AF
:103A2B0050F5C2C622E4F596F5F2F5267818F6D8CD
:103A3B00FDF5A8F5A9F5DCF5DDF5B8F5B9F5DAF581
:103A4B00DBF5DEF5DFF595F59AF59BF59CF59D1409
:103A5B00F580F590F5A0F5B0227B00E5087012D249
:103A6B0030E509B4050474014187B4095DF52241C1
:103A7B008620E759D230E509B40A09E48BEBF5103F
:103A8B0043EC0122B40943E508B4213EE50BB40233
:103A9B000474024187B403329100B4050CBE062AAC
:103AAB00BF002774047E044187B4060CBE021BBF03
:103ABB00081874067E004187B4410FB5250C913769
:103ACB0060021161B11974084187D23322D23120BF
:103ADB00E534E509B406F3E50B30E502941B60EA27
:103AEB00B4080050E523F8903FAA93FC7D3FE8040F
:103AFB0093FE7F00E50F7009C3EE950E4003E50EB4
:103B0B00FE7512416192B4A1C1D509BEE50BB40398
:103B1B00B99100B40519BE06B1BF00AE7A04E51326
:103B2B00B452A77B028512EA75EA721E1E6185B438
:103B3B00060ABE0295BF08927A066129B4418BB57D
:103B4B0025889137708461927808E5EEF9FB600562
:103B5B00A6ED08D9FB22E5106010EF7008EE600BA4
:0D3B6B00B40802D234E510B405092210346C
:103B780001227B004186B4070E7A087B0071FB7135
:103B88009E912E74074187B409E37198740941879F
:103B9800B1187A087B00EE4F600AEA6007D18DF50C
:103BA800EA0BDAF222E510B40220E509F4551130E7
:103BB800E21453F3F7759E6075C07F11615130753B
:103BC800F301D1C5013885091122B40406910D7B92
:103BD800004186B4060281D7B408EEA101E453DBA4
:103BE80067F5E953ECFD53EFFDE4F510F512F52602
:103BF800D23722AC14AD1522AC0CAD0DAE0EAF0F02
:103C0800E50AF51222E508B405FAE509B477028158
:103C18001BF513B4521E91376008E50BB4FC0C7504
:103C28000A00AC0AAD0B8C148D1522E4F51322E5BD
:103C38002764A522B45706913770F0812AB4560933
:103C4800912AEC4D70E5F51822B47727E513B4579F
:103C5800B371FB7A04790AEE4F600BE513B4570889
:103C6800E7B1C409DAF1812ED18D67600474EE42A0
:103C78001880F0B44116E50AB44B11E50BB4490CB1
:103C8800E50CB45207E50DB44102F52554DFB445FF
:103C98003DE50AB4450D630B4F630C4C630D43912E
:103CA800CCE11BB45A087CFE7D37E50BA1BEB4A558
:103CB80007B5271A7CFF81B0B4FF069137700FA1B2
:103CC8002CB4050A850B1D850C1E850D1F2222E5C7
:103CD8001354FEB4561F103708EB7908FA71FB81AC
:103CE8005FE5096420B5130DE508B40608790AEB09
:103CF800C3940250E775130022EB6014B408004027
:103D0800027408FA7908EE4F6006E7B1C409DAF6DA
:103D180022913770FBEDB45AF7ECB4FE047455A148
:103D28003CB4FF0474AAA13C543CF5F775BE007579
:103D3800BF0074E6F5B3759355751C05E512B40517
:103D480055851CB4751C0A851DB5851EB6E5B3B42A
:103D5800E61AE5F724C8502B8030E5BEB4030050BE
:103D680022048380023800B5BF20A18BB46E14E50D
:103D7800F760E724C8500C24F9500F700DE5BE24F5
:103D8800415007851FB700000000E4F5B3F5B4F50E
:103D9800B5F5B6F5B722B40602A149B441F7A14971
:103DA800EE70011F1E227D007C017438B1BE7400C4
:103DB800B1BE7C007402F5BF8DF7C110F5BFE512E6
:103DC800B44102C108BDFC0A75F73FEC44C0F5BE1A
:103DD800C112ED700FECB40300502575F73724FBC2
:103DE800F5BEC112B4FF09303016EC20E712C11934
:103DF800B43800501CB43708BCFA004003BCFA11B0
:103E0800EDB440005026F5F78CBE746EB13C75F7E2
:103E180000B1A8C1B7B4FE07ECF8E5BFF6C119B404
:103E2800FD08ECF875F700E5BFF2C119B4FFE6EC40
:103E380033745A4001C48CBEC114E583700CE5820A
:103E4800B40300504B9037FBC18AB4FF0A303140AD
:103E5800E58220E73BC186B4FC1575833FEC30E76B
:103E68000644C0F582C1895403FC2418F8C1ADB4D6
:103E78003800500AB43719E582B4FA004012903776
:103E8800FAE493C1B7B1A88C828D83E512B441AA34
:103E9800E583B440005004E493C1B7B4FF02C1B64F
:103EA800B4FE05A882E6C1B7B4FD04758300E00C32
:103EB800BC00090DBDFD011DBD00011D22D1C7D8E3
:103EC800FE759355D9F9227806E4F6D8FD7F40753A
:103ED8001205D18D29F950050ABA00010B759355C1
:0D3EE800BD40EF891B8A1A8B19E94A4B6017
:103EF50006BB3F06BAC0037527A522C2AF53F3F729
:103F0500759355758127B45AFDE4F5D0F5F3759E83
:103F15006075C07F01EA74381454FCFAB130EA7058
:103F2500F7B1AEB1AEC1CF12011001000000080318
:103F35000620100103000000010403090409022200
:103F450000010100A032090400000103010100097C
:103F550021100100012248000705810308000A0518
:103F6500010906A1018507050895087501190129AB
:103F7500089102C00600FF0901A10185051500256C
:103F8500FF1901290575089505B102C00600FF094D
:103F950001A1018506150025FF1A01002A010875F2
:103FA50008960108B102C02C1242223E044B095D5D
:103FB5000754096448414B49524100000000000084
:103FC50000000000000000000000000000000000EC
:103FD50000000000000000000000000000000000DC
:103FE50000000000000000000000000000000000CC
:0B3FF5000000000000000000000000C1
:03000000023800C3
:1010BA00000000E59620E10B20E20E20E30B20E081
:0F10CA0008800078FFE4F6D8FD7581C902111483
:1008500000090100128C00148C00183200190000ED
:100860001A00001B010020090022000027000029B7
:1008700005002A1400300A00310900320800330D47
:1008800000340E00350F003610003711003812000A
:100890003913003A14004803004904004A05004B8C
:1008A00006004C07004D08005800005906005A0B7E
:1008B00001000601011F0102660110800111020101
:1008C0001301011B00011EC8012020012200012389
:1008D000F001400001426601437001800001810780
:1008E00001820F0196060197000198040199030106
:1008F0009A02019B07019C05019D03019E80019FB7
:10090000140200000201040202EE020302020402C9
:100910000206B0020704020820020903020B1E02AD
:100920000CF6020E12020F10022500022696022774
:1009300000022EFF022F010239FF023AFF023B03A1
:10094000023DFD023F00024202024D0D025610021E
:1009500058100273000278000300FE030602030829
:1009600019031328031438031538031638031738EE
:10097000031A14031B14032614032E140336140342
:100980004080034101034200034301034400034547
:10099000040346EE03470203480904010204023C33
:1020310001A90301C90301C80001100001A80002A0
:03204100A60000F6
:101D9E00E478A2F608F608F608F622E65407FD7B6C
:101DAE000018E65403F55A22540FFF121502FEC412
:0F1DBE0054F04FF5E5EEC42275F003E555A4226D
:10224200439D03122386539DFDC2B11221EE539D7D
:04225200FEC2B022F6
:10228D00539DFDC2B1122386439D011221EE439D44
:02229D0002221B
:10162D00E4F55BFEEF30E705439D028005539DFD1C
:10163D00C2B1000000000000439D01EF25E0FF0056
:10164D000000000000000000000000539DFEC2B02D
:10165D000EBE08D0000000000000000000000000D9
:10166D00439D02000000000000439D01122386A24D
:10167D00B1E433FD539DFEC2B0BD01037FFB227F5C
:01168D00FA62
:01168E002239
:1017A000E4F55B439D02FE439D01E55B25E0F55BAF
:1017B000A2B1E433425B0000000000000000000022
:1017C0000000539DFEC2B0000000000000000000B9
:1017D0000000000EBE08D0EF6005439D0280055357
:1017E0009DFDC2B1122386439D01122386539DFEA7
:0417F000C2B0AF5B79
:0117F40022D2
:08147B008B558A5689578D58E4
:101483001222427F661214E07039E5594480FF7DD1
:101493000112162DEF64FA702A1222427F6712148A
:1014A300E07020F55AE55814FFE55AC39F5009E44C
:1014B300FF1214CC055A80ED7F011214CC12228D39
:0814C3007FFA2212228D7FFB4B
:1014CB00221217A0AB55AA56A957855A82758300CD
:0E14DB00EF12152F227D0112162DEF64FA225A
:041B64008F568D57B4
:101B68007558FBC2AF1222427F66121B956016AFF2
:101B780056121B95600F7D01AF5712162DEF64FBAF
:0C1B880060037558FA12228DD2AFAF58DE
:0A1B9400227D0112162DEF64FB22E2
:021AAE008F5651
:101AB000E4F557C2AF1222427F66121AE4601DAFEE
:101AC00056121AE460161222427D017F6712162D0B
:101AD000EF64FB60077F011217A08F5712228DD28F
:031AE000AFAF574E
:0A1AE300227D0112162DEF64FB2294
:022129008F55D0
:10212B00AF551555EF6011E4F556E556C394645061
:08213B00EF1221EE055680F2BF
:012143002279
:10127D007F70121AAEEF54816401706AF555122316
:10128D007F121DC62450F582E5F03408F5837F7377
:10129D001212F46051121DC62451F582E5F0340886
:1012AD00F5837F741212F4603D121DC62452F5822F
:1012BD00E5F03408F583E493FD7F75121B64EF644C
:1012CD00FB60230555E555C3947040B2E555B470E8
:1012DD0015E4FD7F73121B647D097F74121B647D01
:0612ED00017F75121B6475
:0B12F30022E493FD121B64EF64FB2259
:1010180078AAE654077012E51030E70D7B007A00D5
:101028007900E4F55AFD02109E78AAE65407FFC33A
:1010380094045066EF6063EFC39401405D78AC7A26
:101048000079AD121DA9120DB678AAE65407C3940B
:1010580002404778B27A0079B31210A3C3940340D0
:101068003978B87A0079B91210A3C39404402B7860
:10107800BE7A0079BF121DA9E4FF120DB678AAE660
:101088005407FFBF051478C4E65407FD7B007A00B7
:1010980079C5121DAFE4FF120DB622E65407FD7B99
:1010A8000018E65403F55AE4FF120DB678AAE65480
:0210B80007220D
:100DB6008F558D568B578A588959E5E730E306E5F6
:100DC600E75403600512237F80F078C9E6FF5403D9
:100DD6007003020E93C2AF75E507EF30E05DAB57C7
:100DE600AA58A959AE02AF01EF4E604F1214E9FF9F
:100DF600C43354E0FEE55625E025E0541C4EFEE5DE
:100E06005A5402C3134EFEE55A540125E04EF5E549
:100E1600900001121502FEC43354E0FDEF131313C4
:100E2600541F4DF5E5EE131313900002121DB690F4
:100E36000003121DB65407F5E5800C75E501E4F5CF
:100E4600E5F5E5F5E5F5E5E4F5E578C9E630E01F15
:100E560030E111E5553333335478FFE51054804FB4
:100E6600F5E5801CE5553333335478F5E580117884
:100E7600C9E630E108E5105480F5E58003E4F5E5C0
:0E0E8600D2AF75E60843E701E4F53AF54522E0
:101A6A00E5E730E306E5E75403600512237F80F0DB
:101A7A00202430C2AF75E501E51078A8465403F575
:101A8A00E578A2E6F5E508E6F5E508E6F5E508E60F
:101A9A00F5E5E4F5E5F5E5D2AF75E60843E701F5C6
:041AAA003AF54522A2
:1009A000C228E4F5557F60120AAE64017005120A90
:1009B0007D8035E555640B7008120A7D7510018045
:1009C00027E555640C600BE555643C6005E555B4BE
:1009D0003D09121D9EF510D228800DE555B403087F
:1009E000121D9E751002D2287F68120AAE643E70F6
:1009F000377F6A120AB6B40108431001D228020AEE
:100A00007AE555B402085310FED228020A7AE55559
:100A1000B40808431002D228020A7AE5556410701F
:100A2000595310FDD22880527F5F120AB6640870B5
:100A300013120AA45407FFBF0103121D9E78A8E6F3
:100A400044018033E55564107013120AA45407FF63
:100A5000BF0103121D9E78A8E64402801A78A8E61A
:100A600060187F01121AAE8F55E5555407FFBF017C
:0C0A700003121D9EE478A8F6D228A228EC
:100A7C00227F62121AAE78A2A6077F63121AAE7892
:100A8C00A3A6077F64121AAE78A4A6077F65121A74
:100A9C00AE78A5A607D228227F01121AAE8F55E593
:100AAC005522121AAE8F55E55522121AAE8F55E506
:020ABC005522C1
:10115900E4F554201D157DAA7F7A121B647DBB7F9F
:101169007A121B647FC8122129D21D78A706E618B6
:1011790070010678A6B60B0C08B6B808E418F6088C
:10118900F612127DD2B320B3607F71121AAE8F545A
:10119900E554547E604CE478A6F608F678C8E67003
:1011A9004178A9E664037032E55430E10E7B007A98
:1011B9000079AA7559017D1E12147BE55430E61594
:1011C9007F5F121AAE8F54E554541C600575108068
:1011D9008003E4F51012101880081209A0500312B8
:0911E9001A6AE4FD7F71121B6417
:0111F20022DA
:10007E001803530049004E004F0020005700450062
:10008E0041004C00540048000004030904200348BA
:10009E0000410049004C00550043004B0020004336
:1000AE00004F002E002C004C0054004400001A0398
:1000BE0055005300420020004B00450059004200FD
:1000CE004F00410052004400005A52594B2D5033FC
:1000DE005F313333355F5054502D55532D48312DEC
:1000EE0030312D30300012011001000000088A2539
:1000FE00200000010102000105010906A10105070A
:10010E0019E029E715002501750195088102950171
:10011E0075088101950375010508190129039102DE
:10012E0095057501910195067508150026FF0005C8
:10013E000719002AFF008100C005010902A10185EF
:10014E000105010901A10005091901290215002562
:10015E0001750195028102050D0932750195018126
:10016E000275059501810305017510950135004550
:10017E000016008026FF7F0930812616008026FF9C
:10018E007F09318126C0C00601000980A1018502C8
:10019E002501150075010A81000A82000A83009567
:1001AE0003810695058101C0060C000901A1018598
:1001BE00032501150075010AB5000AB6000A6F0085
:1001CE000A70000AE2000AA2000AE9000AEA009593
:1001DE000881020A83010A94010A86010A88010A2B
:1001EE008A010A92010AB7000ACD00950881020A17
:1001FE0021020A23020A24020A25020A26020A27DB
:10020E00020A2A020AB10295088102C00501090CF0
:10021E00A10185091500250109C695017501810603
:10022E0075078103C0050D0905A10185070922A1E6
:10023E0002150025010947094295027501810295B3
:10024E0001750325070951810205011500260004D9
:10025E00750F550E65110930350046AC02950181BA
:10026E000226EE0246BE0109318102C0550C66011E
:10027E001047FFFF000027FFFF00007510950105D6
:10028E000D095681020954250F9501750481020549
:10029E000909012501750195018102050D850809E0
:1002AE0055095975049502250FB102050D850D09E5
:1002BE00607501950115002501B1029507B1030680
:1002CE0000FF850A09C5150026FF00750896000176
:1002DE00B102C0050D090EA101850B0922A102096B
:1002EE00521500250A75089501B102C00922A10018
:1002FE00850C09570958750195022501B10295061D
:10030E00B103C0C00600FF0901A101850615002634
:10031E00FF001A01002A0F047508960F04B102C0DF
:10032E000600FF0901A1018505150026FF00190130
:10033E00290575089505B102C00AFC28FE8440CB3C
:10034E009A870DBE573CB670098807972D2BE33858
:10035E0034B66CEDB0F7E59CF6C22E841BE8B451B2
:10036E0078431F284B7C2D53AFFC47701B596F747D
:10037E0043C4F34718531AA2A171C7950E315521E4
:10038E00D3B51EE90CBAECB889193EB3AF75819D91
:10039E0053B94157F46D3925297C87D9B498457DD9
:1003AE00A7269C653B856889D73BBDFF1467F22B5A
:1003BE00F02A4154F0FD2C667CF8C08F331303F104
:1003CE00D3C10B89D91B62CD51B780B8AF3A10C1DA
:1003DE008A5BE88A56F08CAAFA35E942C4D855C32E
:1003EE0038CC2B535C6952D5C87302387C73B64136
:1003FE00E7FF05D82B799AE234608FA3321F097874
:10040E0062BC80E30FBD65200813C1E2EE532D865A
:10041E007EA75AC5D37D98BE31481FFBDAAFA2A87E
:10042E006A89D6BFF2D3322A9AE4CF17B7B8F4E16D
:10043E003308248BC443A5E524C209023B00020104
:10044E0000A032090400000103010100092110017E
:10045E0000012241000705810308000A090401007A
:10046E00010300000009211001000122000207050E
:10047E00820308000AFF11F3FF16EEFF2314FF1983
:10048E00D7FF2314FF1FBAFF0ABEFF2314FF2178E4
:10049E00FF1F16FF1DFBFF1BD8FF2314FF2314FFA6
:1004AE000BD2FF198AFF1DCDFF2314FF2314FF2348
:1004BE0014FF2314FF2314FF0E94FF1748FF1D6E25
:1004CE00FF2393FF2399FF2354FF1557FF239FFF0D
:1004DE0023A5FF2393FF2393FF2320FF232BFF232B
:1004EE00ABFF23B1FF2393FF1F59FF1C0EFF23B752
:1004FE00FF23BDFF23C3FF235DFF23C9FF23CFFFD0
:10050E000066FF2366FF23D5FF006EFF236FFF23D8
:10051E00DBFF1C44FF23E1FF2393FF22D1FF239334
:0C052E00FF2393FF2393FF18EDFF0076DE
:100F6C0053DBEFD213AF48EF75F003A424F2F582F4
:100F7C00E43404F583740193FA740293F9227549ED
:100F8C000275EB0143B91075E90643EC0122754972
:100F9C0001E4F5EB43B90875E90143EC0122852A1C
:100FAC0082852983E493754B00F54C75470722E63F
:100FBC00F5EA75490275EB022214F5828C83E493F1
:100FCC00F5EA0F22C3E54E9408E54D940022754ACC
:100FDC000874F8254EF54E74FF354DF54D22F5830A
:100FEC00740193FA740293F9021551E493424F750C
:100FFC00480F754901E42243EF0453EFFE22E53616
:0C100C004535453422052AE52AAC29228E
:0D22EE00E549C394064003E4F549AF4922D9
:101F9B008F4AE4FDFCEFFBC3ED9B7480F86C98500B
:0E1FAB000D742F2DF8A6ED0DBD00010C80E782
:011FB9002205
:10220400200302D322E52F64A16008E52F64A260B5
:0522140002D322C322E9
:10221900200302D322E52F64216008E52F642260A0
:0522290002D322C322D4
:06238D00E4F549F5B92258
:101D3E0043C067E4F5A3F5A2F5A5F5A6F53AF5457A
:101D4E0085F328C2AF53968E12237F438702758E7A
:101D5E005500000043F3207F1A12201453F3CF22B4
:1012FE00E4F552E5DF30E103E4F5DFE5DF30E26DE2
:10130E0053DFFB12237F053AAF3AEFC39543405AA2
:10131E0030034BE53F7008E551653760028016E4F7
:10132E00FF74852FF9745C2FF8E64742520FBF12F7
:10133E00F0E55260095396BFE4F53AD2AB22E4F5DC
:10134E009543F310E5A4B4FF0F75A0FFE4F580F507
:10135E009075B00FD2B080031221AA121D3EE4F593
:10136E009543F3101221AA121D3ED2AB22E4F5DFF3
:01137E00224C
:10137F00C2AFE5EF54186007E5EF20E46E8066E535
:10138F00EE64087060AFEE121F9B121003E5EF20A2
:10139F00E459E4F5B953DB67F549F5485322F0F505
:1013AF0047F5E9F53AE52F546024E0601B242070DF
:1013BF0037E530C3940D5033AF30EF75F003A424ED
:1013CF0083F582E434048015E530C3940C501CAFD0
:1013DF0030EF75F003A424AAF582E43404120F7FD2
:1013EF00121551800612100312231453EFFBD2AFC4
:0113FF0022CB
:1011F300E53564026003021279E5367079E52F2440
:101203007F601414602A2402706AE5A47004F5EA6E
:10121300804675EA028041E53460028059E5331463
:1012230060050470098021300302801C80488046D9
:10123300E53460028040E5332480600C14600E14B2
:10124300601B2482702C8000E4F5EA801C30030BC1
:10125300E5E45402C313F5EAE4800E801930031069
:10126300E5E75402C313F5EAE4120FBC120F902210
:0A1273008004800280001223142280
:1016EE00E5327052E52F24FE601024027046E5317B
:1016FE00B401057548038032803CE53445317032C3
:10170E00E5332480600F1460111460182482702059
:10171E007548048015754805801030030575480618
:10172E008008801230030775480A120F9A2280062D
:0A173E0080048002800012231422B0
:1019D700E53645354532703FE52F700CE531B401EA
:1019E700057548078029802FE52F64027027E534A5
:1019F70045317021E533547F601B300318E533B45C
:101A070081057548088008E533B4820775480B12CD
:0B1A17000F9A2280028000122314228C
:101FBA00E53545364532452F7011E531C3948050D9
:0F1FCA000A853146754801120F9A2212231422FC
:100ABE00E52F64806009E52F64816003020BCEE5AB
:100ACE0032546024E07003020B5A24206003020BA0
:100ADE00CCE52FB48103020BCEE53224FE6019144F
:100AEE00602824027064754B00754C1275290075D0
:100AFE002AF4754701020BC5754B00754C3B7529E1
:100B0E0004752A48754702020BC5E53114601614A8
:100B1E00601F2403602714702F752900752A971201
:100B2E000FAA020BC5752900752A9B120FAA020B7C
:100B3E00C5752900752ABC120FAA020BC5752900AE
:100B4E00752A7E120FAA806F80768074E534700548
:100B5E00E52FB480028069E533702DE53224DE6026
:100B6E0014047022754B00754C09752904752A5AA8
:100B7E007547038042754B00754C41752901752AE6
:100B8E000675470480318038E5336401702EE532F6
:100B9E0024DE6014047023754B00754C097529040E
:100BAE00752A73754705800F754B02754C007529B4
:100BBE0001752A47754706021400800480028000E2
:040BCE0012231422B8
:10217800E535B40110E536700CE52FB48007853BD2
:09218800EA120F8A22122314222C
:101F1600E53645354532452F7014E5F26010E5315A
:101F26006005E531B40107754802120F9A221223A3
:021F3600142273
:101DFB00300326E53645347020E5356401701AE56D
:101E0B002F64817014E53370028006E533B401074B
:0D1E1B00E4F5EA120F8A228000122314223F
:101BD80030032F12100A453245317026E52F640173
:101BE8007020E5337008754809754901800CE533A4
:101BF800B4010D75480C754901E4F5EB120F9022FC
:061C0800800012231422EB
:100BD2001222045003020CC7E534701FE533701B68
:100BE200E5317017E532B4020FE52B5407F5EA75CB
:100BF200490275EB01020CA0020CC7E531B40511E4
:100C0200E532B4030C75EA0575490275EB03020C73
:100C1200A0E531B40621E532B4031CE535B4101762
:100C2200E536B40412752900752AD7754B00754C48
:100C32001C754708020CC2E53164087015E532B430
:100C42000310E533B4010B75EA0875EA03120FBE0F
:100C5200804CE531640D7014E532B4030FE533B412
:100C6200010A75EA0D78C8120FBB8032E531640BB8
:100C72007014E532B4030FE533B4010A75EA0B7858
:100C8200A9120FBB8018E531640C7016E532B4036B
:100C920011E533B4010C75EA0C78C9120FBB120FBF
:100CA2009022E531B40A1CE532B40317E533B401EE
:100CB200127401F54BF54C752903752A47754705E2
:090CC20002140080001223142228
:10198A001222044044E5364534703CE53564017062
:10199A0036E5337009E5317030853CEA8021E5335C
:1019AA006401702190231093B531077881E6F5EA36
:1019BA00800D902311E493B531097882E6F5EA1295
:0D19CA000F8A228004800280001223142264
:101DCD001222044025E5364534701DE53564017059
:101DDD0017E5337005853EEA8008E533B4010785C4
:0E1DED0044EA120F8A22800280001223142280
:100E94001222195003020F68E5346003020F6BE558
:100EA400367071E5359408506BE53354FE7063E594
:100EB400314533700BE532B40206754812020F480F
:100EC400E531B4050FE532B4030AE535B40605751A
:100ED40048168070E531B40B0AE532B40305754851
:100EE400168061E531B40C0AE532B4030575481681
:100EF4008052E531B4080AE532B40305754816801A
:100F040043E531B40D0AE532B4030575481680345F
:100F140080528050E5366404701DE5356410701706
:100F2400E53364017011E531B4060AE532B4030512
:100F3400754817800F802DE531B40A0DE532B403EE
:100F4400087548167549048013E5337015E531704A
:100F54000FE532B4020A754812754905120F9D2235
:080F6400800280001223142218
:10174800122219404F12100A7048E5337009E5312A
:10175800704275480D8010E53364017033E53170CF
:101768000B434F0375480F754901801E902310E401
:1017780093B53108902308120FF7800E902311E4D7
:1017880093B5310A902309120FF7120F9E22800495
:081798008002800012231422DC
:101D6E00122219402712100A4532701EE5337008F0
:101D7E0075480E754901800CE533B4010B7548109A
:101D8E00754901E4120F9E22800280001223142254
:0623930053EFFBD2AF2264
:06239900120F7102155144
:0923540043EC0253EFFBD2AF226F
:10155700E54E454D6057120FD04005120FDA80084F
:10156700854E4AE4F54DF54EE54A6036E54760326B
:10157700E547B40819E54E454D7013FFEFC3954A8B
:10158700502012101170020529120FC580EEE4FFDA
:10159700EFC3954A500C12101170020529120FC59E
:1015A70080EE854AEB120F90201211800830110946
:0C15B700C211E4F5EB43EC012243EC020E
:0115C3002205
:06239F00120F6C02155143
:0623A500120F6C0215513D
:0B23200053DBEFD213E4F54702238DDE
:0B232B0053DBEFD213E4F54702238DD3
:0623AB00120F7102155132
:0623B100120F710215512C
:101F59008546F2E4F53B53E4F753E7F7E5F2600809
:101F69005320F043208480065320F043208202232B
:011F79008DDA
:101C0E0085313BE53B601453E4FD43E40C53E7FDA3
:101C1E0043E70C5320F0432088801853E4F753E732
:101C2E00F7E5F260085320F043208480065320F03D
:061C3E0043208202238D09
:0623B700E4F5A402238DF1
:0623BD0053EFFD02238D29
:0623C30053ECFD02238D26
:09235D0053E4FD43E40C02238D5E
:0923660053E7FD43E70C02238D4F
:0623C90075A4FF02238D44
:0623CF0043E40E02238D21
:0623D50043E70E02238D18
:0300660002238DE5
:03006E0002238DDD
:09236F0085323C85323D02238DCC
:101C4400E54F5403FFBF0314E4FF74812FF8A63259
:101C540074832FF8A6320FBF02F08017E54F30E0EF
:101C64000A7881A6327883A63280087882A63278F0
:061C740084A63202238D5C
:0623DB0085313E02238D56
:0623E10085314402238D4A
:0F22D100E549B40409E52F5407F52B12238D229C
:1018ED00E52FB4051EE53064757041E5344533458B
:1018FD003245317037C2AF745A75F0A512001ED241
:10190D00AF8029E52FB40C0678C9A630801EE52FCF
:10191D00B40D0678C8A6308013E52FB40B0E78A948
:0F192D00A630E6FF600664036002E4F602238D35
:0300760002238DD5
:10204E00C2AF43EF041222EEEF75F003A424CEF5D7
:0D205E0082E43404120FEA53EFFBD2AF22EC
:10168F00C2AFE5EF30E402802943EF04E5EE6027B7
:10169F00E5EEC39409400E12100343EC0243EF0230
:1016AF0012238D801DAFEE121F9B53EFFEE5EF301F
:1016BF00E41553DBF7800B53EFFEE5EF30E40853EF
:1016CF00DBF753EFFB80121222EEEF75F003A42429
:0F16DF00E0F582E43404120FEA53EFFBD2AF229E
:10140000AF36EFFEAD357C00E42DFFEC3EFE7549B6
:1014100002F54D8F4EE547600FC3E54C9FE54B9EAF
:101420005006854B4D854C4E120FD0400DE549645A
:10143000026005E549B404020549E54E540770040D
:10144000D2118002C211120FD04005120FDA8008AB
:10145000854E4AE4F54DF54EE54A6018E5476014BF
:10146000E4FFEFC3954A500C1210117002052912C7
:0A1470000FC580EE854AEB120F90C5
:01147A00224F
:0C23140043EC0243EF02E4F549F5B92266
:04001E00023F00227B
:10184A0075531212225678A9760378C97603E4787A
:10185A00C8F6C21DC2B212237F1222FB200305E47E
:10186A00F52180F212193C121A22755312AF531540
:10187A0053EF600812189D12206B80F11211593033
:10188A000B0AC20B122336121E7F80CA300CC7C243
:03189A000C80C3FC
:10225600752E1475D3CE53DAF753DAFD75D4A075FF
:03226600A8882223
:0D22FB0043DD0643A95B43A88053D0E722D2
:0B233600E53C6006D53D03853C3D22E0
:10206B00E551B5370BE4F537F55130090EC20922AE
:0C207B000537E537540FF53712053A22FF
:101E7F00539EF8E52B30E006C2C0D21A8004D2C0C0
:101E8F00C21AE52B30E104C2C18002D2C1E52B306A
:081E9F00E203C2C222D2C222FA
:1006EC0000000000000000000000020100000000FB
:1006FC000700000007010000010B070208000801B9
:10070C00000000000000000002400000000000009B
:10071C0000000000000000000000000000000000CD
:10072C000000000000000000020200000134000084
:10073C00013100000000000007030704012800003D
:10074C00000000000000000000000000000000009D
:10075C000000000007050000010D0706070708024E
:10076C000708000007090000080300000109010642
:10077C00070A0000070B000001040600070C060125
:10078C0006020000070D0000060300000116010719
:10079C000000000000000000070E00000138070FE9
:1007AC00071000000000000001390400012B0711A4
:1007BC000712000007130000102C0000010A0804A7
:1007CC00000000000714000001370136071508056A
:1007DC0000000000000000000716000000000000F0
:1007EC0000000000071700000000020800000000D5
:1007FC0000000000000000000000000000000000ED
:10080C001DB308B715B61BB21C35182D122E192F97
:10081C0005300E3326422541112F4F4D2A4C2743CC
:10082C0010300C2D1735223E203C1F3B1A45213D24
:10083C00514E524B1E3A14442440233F132E0F3377
:04084C00504A29469F
:092044000112000111000113005A
:101CAC00240DF582E43408F583E493FDA20AE433B1
:101CBC00FF22A20AE433FFAD5422E55425E024159B
:101CCC00F582E4340822E55425E02414F582E4344A
:021CDC000822DC
:10053A0074702537F8E6FFC3949040030206D77516
:10054A00F002EFA424ECF582E5F03406F583E49397
:10055A00F55575F002EFA424EDF582E5F03406F5C1
:10056A0083E493F554E55570030206D7121F7AE522
:10057A0055B40409300A04D2268002C226200A038E
:10058A00020622E555B40203020627E555B4010323
:10059A0002061CE555B4030302063DE555B40503FE
:1005AA00020648E55564067010E55425E030260633
:1005BA00121CAC020640020662E555640870163049
:1005CA00260D781376011206D8121CC60206691285
:1005DA001CD2020669E5556407701AE55425E03015
:1005EA0026092421F582E4340880072420F582E4D0
:1005FA003408020669E555641060030206D73026FE
:10060A0011781176011206E2A20AE433FF7D730221
:10061A0006D4121CBE0206D4E555B40206121CBE4C
:10062A0002229FE555B40106121CBE0206D4E55506
:10063A00B40306121CBE021AEDE555B40506121CD7
:10064A00BE02215EE5556406701BE55425E0121CC6
:10065A00AC121AEDE55425E0240CF582E4340812B4
:10066A001CB30206D4E5556408701B7813E66005CE
:10067A00E4F61206D8121CC6121CB31217F5121C85
:10068A00D2121CB38044E55564077021E55425E075
:10069A002421F582E43408121CB31217F5E5542517
:1006AA00E02420F582E43408121CB3801DE5556469
:1006BA0010701A7811E66005E4F61206E2A20AE45E
:0D06CA0033FF7D731217F5121CBE1217F5D9
:1006D70022A20A33FF7D0212229F22A20A33FF7D44
:0506E7000912229F2210
:1017F500EF601FE4FE74982EF8E6700974982EF8D1
:10180500A605D2222274982EF8E66D60370EBE0624
:10181500E422E4FE74982EF8E66D7024EEC3940578
:101825005017AF06EFC39405500F74992FF8E6FCD7
:1018350074982FF8A6040F80EBE4789DF6D2222247
:041845000EBE06D0FD
:01184900227C
:101AED00ED2450131313541FFE53061F0EED540710
:101AFD0090230893FBFCEF6010749E2EF8E65C704B
:101B0D001A749E2EF8E64C800F749E2EF8E65C60DB
:0B1B1D000A749E2EF8EBF456F6D2215D
:011B2800229A
:10229F00D222EF60067897E64DF622EDF478975646
:0222AF00F62215
:10215E00EF600A789EE65D7010E64D8009789EE687
:0A216E005D6006EDF456F6D2202263
:10193C00E5E430E348E5E45403704230223FC22230
:10194C00E59630E4045396EF22C2AF7897E6F5E2C1
:10195C00E4F5E230080AFF75E2010FBF06F9800DCD
:10196C00E4FF74982FF8E6F5E20FBF06F5D2AF75D9
:0D197C00E30843E401853C3DE4F53AF54500
:01198900223B
:101A2200E5E730E342E5E75403703CE545703830C2
:101A32002011C220C2AF75E502789EE6F5E575E693
:101A420002801A302121C221C2AF75E503789FE6D8
:101A5200F5E508E6F5E508E6F5E575E604D2AF43F7
:081A6200E701E4F53AF5452225
:101E28001080204002010804FBFDFDEFF77FF7FB5F
:101E38007FDFBFBFEFFEEFDFFEDF00010003000121
:0C1E480001010000000100010101000385
:0E22E000E526901E3093225407902308932287
:10189D0020094C1215C4300F028041E527701774D2
:1018AD005C2526F8A6390526E526C394125001229B
:1018BD000527E4F52622745C2526F8E665396002D5
:1018CD00801A0526E526C39412500122121B9E9202
:1018DD00083008028006200903121B291223E72273
:1021AA00E4F59CF59BF59A539D0B7580FF7590FF9E
:0821BA0075A0FFD2B4D2B522DA
:10219100E4FEFDEE25E0FEED901E28935F60034313
:0821A10006010DBD08EDAF06BB
:0121A9002213
:1015C4001221AAE526C39412505AE526901E42938E
:1015D400FFC39404504AEF64026045EF700712227F
:1015E400E0F5808020E526901E4293B40107122284
:1015F400E0F59080101222E0B4EF06C2B4D2B580B8
:1016040004D2B4C2B512238685A039122386E539E3
:10161400B5A0F2AFA0122191EFF4F539C20F800604
:09162400D20F8002D20F0221AAAC
:101B9E00E4FFFE745C2EF8E6FD5FFCED4207EC60A0
:101BAE0023C3135455FDEC54552DFC13135433FD20
:101BBE00EC54332DFCC4540FFDEC540F2DD3940173
:091BCE004002D3220EBE12CBC36B
:011BD70022EB
:0623E700E4F527F52622B3
:101B2900E4F554F55474852554F8E6FF745C25549E
:101B3900F8E6FEB507028019EE6FFFAD54120CCB23
:101B4900500122745C2554F8E6FF74852554F8A6E3
:0A1B5900070554E554C3941240CB75
:011B6300225F
:040CCB008F558D565E
:100CCF00E4F558745C2556F8E6F557E4FF43588071
:100CDF00E55825E004F558C20AE55730E702D20A75
:100CEF00E55725E0F557E55520E70EBF0702C3226C
:100CFF00E55525E0F555020DAAE55525E0F555E535
:100D0F0056C394124002D3220551E551540FF551A9
:100D1F00E55633333354F84FFE74702551F8A60659
:100D2F00E5511222E7FE200A15E55130E308EEF4F3
:100D3F00786F56F68016EEF4786E56F6800EE55103
:100D4F0030E304786F8002786EE64EF6E551653732
:100D5F006007EF64077044C322EFC394075017E591
:100D6F005825E0F55830D7047E0180027E00EE252D
:100D7F0058F5580F80E3745C2556F8E55856F6740D
:100D8F005C2556F974852556F8E558F45647F7153E
:100D9F0051E551540FF551D209C3220FEFC39408F7
:060DAF005003020CDCD32E
:010DB500221B
:101F7A00E53730E3091222E7786F56FF8009E53723
:101F8A001222E7786E56FFEF7003C38001D3920ADC
:011F9A002224
:1010D900022269E493A3F8E493A34003F68001F2A2
:1010E90008DFF48029E493A3F85407240CC8C33318
:1010F900C4540F4420C8834004F456800146F6DFE7
:10110900E4800B0102040810204080902031E47E25
:10111900019360BCA3FF543F30E509541FFEE493DB
:10112900A360010ECF54C025E060A840B8E493A3A2
:10113900FAE493A3F8E493A3C8C582C8CAC583CACD
:10114900F0A3C8C582C8CAC583CADFE9DEE780BE85
:01204D000092
:1014E900BB010689828A83E0225002E722BBFE0201
:0914F900E32289828A83E4932234
:10150200BB010CE58229F582E5833AF583E022509E
:1015120006E92582F8E622BBFE06E92582F8E222E8
:0D152200E58229F582E5833AF583E4932202
:10152F00F8BB010DE58229F582E5833AF583E8F0F2
:10153F00225006E92582C8F622BBFE05E92582C89E
:02154F00F22286
:061551008A838982E47325
:00000001FF
